:020000040800F2
:1000000000800120A90D0008F9220008FB22000849
:10001000FD220008FF220008012300080000000064
:1000200000000000000000000000000003230008A2
:100030000523000800000000072300080125000830
:10004000F10D0008F10D0008F10D0008F10D000898
:10005000F10D0008F10D0008F10D0008F10D000888
:10006000F10D0008F10D0008F10D0008F10D000878
:10007000F10D0008F10D0008F10D0008F10D000868
:10008000F10D0008F10D0008F10D0008F10D000858
:1000900009230008F10D0008F10D0008F10D00081A
:1000A000F10D0008F10D0008F10D0008F10D000838
:1000B000F10D0008F10D0008F10D0008F10D000828
:1000C000F10D0008F10D0008F10D0008F10D000818
:1000D000F10D0008F10D0008F10D0008F10D000808
:1000E000F10D0008F10D0008F10D0008F10D0008F8
:1000F000F10D0008F10D0008F10D0008F10D0008E8
:10010000F10D0008F10D0008F10D0008F10D0008D7
:10011000F10D0008F10D0008F10D0008F10D0008C7
:10012000F10D0008F10D0008F10D0008F10D0008B7
:100140000348044B834202D0034B03B11847704766
:100150002409002024090020000000000548064B67
:100160001B1AD90F01EBA301491002D0034B03B1B5
:1001700018477047240900202409002000000000CF
:1001800010B5064C237843B9FFF7DAFF044B13B1DF
:100190000448AFF300800123237010BD280900201C
:1001A000000000006886000808B5044B1BB1044934
:1001B0000448AFF30080BDE80840CFE7000000002E
:1001C0002C09002068860008844641EA000313F0E9
:1001D00003036DD1403A41D351F8043B40F8043B4E
:1001E00051F8043B40F8043B51F8043B40F8043B11
:1001F00051F8043B40F8043B51F8043B40F8043B01
:1002000051F8043B40F8043B51F8043B40F8043BF0
:1002100051F8043B40F8043B51F8043B40F8043BE0
:1002200051F8043B40F8043B51F8043B40F8043BD0
:1002300051F8043B40F8043B51F8043B40F8043BC0
:1002400051F8043B40F8043B51F8043B40F8043BB0
:1002500051F8043B40F8043B403ABDD2303211D350
:1002600051F8043B40F8043B51F8043B40F8043B90
:1002700051F8043B40F8043B51F8043B40F8043B80
:10028000103AEDD20C3205D351F8043B40F8043B50
:10029000043AF9D2043208D0D2071CBF11F8013B4E
:1002A00000F8013B01D30B8803806046704700BF14
:1002B000082A13D38B078DD010F003038AD0C3F123
:1002C0000403D21ADB071CBF11F8013B00F8013B05
:1002D00080D331F8023B20F8023B7BE7043AD9D3C4
:1002E000013A11F8013B00F8013BF9D20B78037099
:1002F0004B7843708B788370604670470000000035
:1003000030B490F800F020F007016FF0000C10F00E
:10031000070491F820F040F048804FF000046FF09F
:100320000700D1E9002391F840F000F1080082FABB
:100330004CF2A4FA8CF283FA4CF3A2FA8CF34BBB86
:10034000D1E9022382FA4CF200F10800A4FA8CF2FF
:1003500083FA4CF3A2FA8CF3E3B9D1E9042382FACD
:100360004CF200F10800A4FA8CF283FA4CF3A2FAE2
:100370008CF37BB9D1E9062301F1200182FA4CF21A
:1003800000F10800A4FA8CF283FA4CF3A2FA8CF381
:10039000002BC6D0002A04BF04301A4612BAB2FAA3
:1003A00082F200EBD20030BC7047D1E9002304F0A8
:1003B0000305C4F100004FEAC50514F0040F91F8DD
:1003C00040F00CFA05F562EA05021CBF63EA05037A
:1003D00062464FF00004AAE70000000000000000A1
:1003E00001F0FF01102A2BDB10F0070F08D010F8E6
:1003F000013B013A8B422DD010F0070F42B3F6D1EA
:10040000F0B441EA012141EA014122F007047FF002
:1004100000070023F0E80256083C85EA010586EA59
:10042000010685FA47F5A3FA87F586FA47F6A5FA95
:1004300087F68EB9EED1F0BC01F0FF0102F00702A1
:1004400032B110F8013B013A83EA010313B1F8D14C
:100450000020704701387047002D06BF354603382D
:10046000073815F0010F07D1013015F4807F02BF66
:10047000013015F4C03F0130F0BC0138704700BFB7
:1004800081F0004102E000BF83F0004330B54FEA45
:1004900041044FEA430594EA050F08BF90EA020FB2
:1004A0001FBF54EA000C55EA020C7FEA645C7FEA45
:1004B000655C00F0E2804FEA5454D4EB5555B8BF68
:1004C0006D420CDD2C4480EA020281EA030382EAD9
:1004D000000083EA010180EA020281EA0303362D6B
:1004E00088BF30BD11F0004F4FEA01314FF4801C3E
:1004F0004CEA113102D0404261EB410113F0004F50
:100500004FEA03334CEA133302D0524263EB430306
:1005100094EA050F00F0A780A4F10104D5F1200EA4
:100520000DDB02FA0EFC22FA05F2801841F10001FF
:1005300003FA0EF2801843FA05F359410EE0A5F1D3
:1005400020050EF1200E012A03FA0EFC28BF4CF004
:10055000020C43FA05F3C01851EBE37101F00045BA
:1005600007D54FF0000EDCF1000C7EEB00006EEBC7
:100570000101B1F5801F1BD3B1F5001F0CD3490851
:100580005FEA30004FEA3C0C04F101044FEA4452A8
:1005900012F5800F80F09A80BCF1004F08BF5FEA2F
:1005A000500C50F1000041EB045141EA050130BD0F
:1005B0005FEA4C0C404141EB0101013C28BFB1F521
:1005C000801FE9D291F0000F04BF01460020B1FA6C
:1005D00081F308BF2033A3F10B03B3F120020CDA3F
:1005E0000C3208DD02F1140CC2F10C0201FA0CF01D
:1005F00021FA02F10CE002F11402D8BFC2F1200C82
:1006000001FA02F120FA0CFCDCBF41EA0C01904037
:10061000E41AA2BF01EB0451294330BD6FEA040480
:100620001F3C1CDA0C340EDC04F11404C4F120026B
:1006300020FA04F001FA02F340EA030021FA04F37D
:1006400045EA030130BDC4F10C04C4F1200220FAD4
:1006500002F001FA04F340EA0300294630BD21FA12
:1006600004F0294630BD94F0000F83F4801306BFD8
:1006700081F480110134013D4EE77FEA645C18BFCC
:100680007FEA655C29D094EA050F08BF90EA020F63
:1006900005D054EA000C04BF1946104630BD91EA5B
:1006A000030F1EBF0021002030BD5FEA545C05D15E
:1006B0004000494128BF41F0004130BD14F580049D
:1006C0003CBF01F5801130BD01F0004545F0FE4111
:1006D00041F470014FF0000030BD7FEA645C1ABF46
:1006E000194610467FEA655C1CBF0B46024650EA7D
:1006F000013406BF52EA033591EA030F41F40021A9
:1007000030BD00BF90F0000F04BF0021704730B52E
:100710004FF4806404F132044FF000054FF0000103
:1007200050E700BF90F0000F04BF0021704730B5C4
:100730004FF4806404F1320410F0004548BF404299
:100740004FF000013EE700BF42004FEAE2014FEAEE
:1007500031014FEA02701FBF12F07F4393F07F4FC9
:1007600081F06051704732F07F4208BF704793F0CC
:100770007F4F04BF41F40021704730B54FF46074DF
:1007800001F0004521F000411CE700BF50EA0102E2
:1007900008BF704730B54FF000050AE050EA01028B
:1007A00008BF704730B511F0004502D5404261EBFB
:1007B00041014FF4806404F132045FEA915C3FF43C
:1007C000D8AE4FF003025FEADC0C18BF03325FEAD9
:1007D000DC0C18BF033202EBDC02C2F1200300FA8A
:1007E00003FC20FA02F001FA03FE40EA0E0021FAAF
:1007F00002F11444BDE600BF70B54FF0FF0C4CF49D
:10080000E06C1CEA11541DBF1CEA135594EA0C0F4E
:1008100095EA0C0F00F0DEF82C4481EA030621EA89
:100820004C5123EA4C5350EA013518BF52EA0335C4
:1008300041F4801143F4801338D0A0FB02CE4FF076
:100840000005E1FB02E506F00042E0FB03E54FF0A6
:100850000006E1FB03569CF0000F18BF4EF0010E9E
:10086000A4F1FF04B6F5007F64F5407404D25FEA9A
:100870004E0E6D4146EB060642EAC62141EA55514D
:100880004FEAC52040EA5E504FEACE2EB4F1FD0C8F
:1008900088BFBCF5E06F1ED8BEF1004F08BF5FEA0D
:1008A000500E50F1000041EB045170BD06F00046BF
:1008B00046EA010140EA020081EA0301B4EB5C046C
:1008C000C2BFD4EB0C0541EA045170BD41F4801164
:1008D0004FF0000E013C00F3AB8014F1360FDEBF89
:1008E000002001F0004170BDC4F10004203C35DA65
:1008F0000C341BDC04F11404C4F1200500FA05F3E8
:1009000020FA04F001FA05F240EA020001F0004288
:1009100021F0004110EBD37021FA04F642EB0601FE
:100920005EEA430E08BF20EAD37070BDC4F10C0428
:10093000C4F1200500FA04F320FA05F001FA04F2EC
:1009400040EA020001F0004110EBD37041F10001D8
:100950005EEA430E08BF20EAD37070BDC4F12005E3
:1009600000FA05F24EEA020E20FA04F301FA05F24B
:1009700043EA020321FA04F001F0004121FA04F2F3
:1009800020EA020000EBD3705EEA430E08BF20EAC3
:10099000D37070BD94F0000F0FD101F000464000FD
:1009A00041EB010111F4801F08BF013CF7D041EA7F
:1009B000060195F0000F18BF704703F00046520083
:1009C00043EB030313F4801F08BF013DF7D043EA54
:1009D0000603704794EA0C0F0CEA135518BF95EA0A
:1009E0000C0F0CD050EA410618BF52EA4306D1D191
:1009F00081EA030101F000414FF0000070BD50EAB0
:100A0000410606BF1046194652EA430619D094EA39
:100A10000C0F02D150EA013613D195EA0C0F05D123
:100A200052EA03361CBF104619460AD181EA030177
:100A300001F0004141F0FE4141F470014FF000002F
:100A400070BD41F0FE4141F4780170BD70B54FF0CA
:100A5000FF0C4CF4E06C1CEA11541DBF1CEA13554A
:100A600094EA0C0F95EA0C0F00F0A7F8A4EB05042C
:100A700081EA030E52EA03354FEA013100F0888023
:100A80004FEA03334FF0805545EA131343EA1263EC
:100A90004FEA022245EA111545EA10654FEA0026A1
:100AA0000EF000419D4208BF964244F1FD0404F55A
:100AB000407402D25B084FEA3202B61A65EB0305B6
:100AC0005B084FEA32024FF480104FF4002CB6EB73
:100AD000020E75EB030E22BFB61A754640EA0C00F3
:100AE0005B084FEA3202B6EB020E75EB030E22BF33
:100AF000B61A754640EA5C005B084FEA3202B6EB74
:100B0000020E75EB030E22BFB61A754640EA9C0032
:100B10005B084FEA3202B6EB020E75EB030E22BF02
:100B2000B61A754640EADC0055EA060E18D04FEAC0
:100B3000051545EA16754FEA06164FEAC30343EA60
:100B400052734FEAC2025FEA1C1CC0D111F4801F2D
:100B50000BD141EA00014FF000004FF0004CB6E726
:100B600011F4801F04BF01430020B4F1FD0C88BFC5
:100B7000BCF5E06F3FF6AFAEB5EB030C04BFB6EBD0
:100B8000020C5FEA500C50F1000041EB045170BDC3
:100B90000EF0004E4EEA113114EB5C04C2BFD4EBF0
:100BA0000C0541EA045170BD41F480114FF0000E74
:100BB000013C90E645EA060E8DE60CEA135594EAF0
:100BC0000C0F08BF95EA0C0F3FF43BAF94EA0C0FF3
:100BD0000AD150EA01347FF434AF95EA0C0F7FF468
:100BE00025AF104619462CE795EA0C0F06D152EABC
:100BF00003353FF4FDAE1046194622E750EA4106A0
:100C000018BF52EA43067FF4C5AE50EA41047FF4B0
:100C10000DAF52EA43057FF4EBAE12E74FF0FF3C15
:100C200006E000BF4FF0010C02E000BF4FF0010CE6
:100C30004DF804CD4FEA410C7FEA6C5C4FEA430C5F
:100C400018BF7FEA6C5C1BD001B050EA410C0CBFAE
:100C500052EA430C91EA030F02BF90EA020F002010
:100C6000704710F1000F91EA030F58BF994208BF77
:100C700090422CBFD8176FEAE37040F00100704734
:100C80004FEA410C7FEA6C5C02D150EA013C07D18B
:100C90004FEA430C7FEA6C5CD6D152EA033CD3D0D6
:100CA0005DF8040B704700BF8446104662468C46D0
:100CB0001946634600E000BF01B5FFF7B7FF002803
:100CC00048BF10F1000F01BD4DF808EDFFF7F4FF2C
:100CD0000CBF012000205DF808FB00BF4DF808EDB7
:100CE000FFF7EAFF34BF012000205DF808FB00BFDA
:100CF0004DF808EDFFF7E0FF94BF012000205DF8FC
:100D000008FB00BF4DF808EDFFF7CEFF94BF0120B0
:100D100000205DF808FB00BF4DF808EDFFF7C4FFA9
:100D200034BF012000205DF808FB00BF4FEA410CF2
:100D30007FEA6C5C02D150EA013C0AD14FEA430CD5
:100D40007FEA6C5C02D152EA033C02D14FF0000012
:100D500070474FF0010070474FEA410212F5001250
:100D600015D211D56FF47873B3EB625212D94FEAF2
:100D7000C12343F0004343EA505311F0004F23FADC
:100D800002F018BF404270474FF00000704750EA31
:100D9000013005D111F0004008BF6FF000407047EE
:100DA0004FF00000704700BF002103E00B4B5B5881
:100DB000435004310A480B4B42189A42F6D30A4A70
:100DC00002E0002313600432084B9A42F9D300F08A
:100DD00081F801F063FD01F03BFB7047648A000875
:100DE000000000202409002028090020880C002091
:100DF000FEE70000334A136843F480331360002396
:100E00000133304A126812F4003F03D14FF6FF72EB
:100E10009342F5D12B4B1B6813F4003F00D1FEE742
:100E2000284BDA6942F08052DA6127490A6842F4B5
:100E300040420A605A685A605A685A605A6842F4D6
:100E400080625A605A6822F440325A605A6842F40A
:100E500040325A605A6822F0904222F470125A606E
:100E60005A6842F0036242F480225A601A6842F0E3
:100E700080721A60134B1B6813F0007FFAD0124A7D
:100E8000136843F4803313600F4B5B6813F4803FA7
:100E9000FAD00D4A136843F4003313600A4B5B68C1
:100EA00013F4003FFAD0074B5A6822F003025A604D
:100EB0005A6842F002025A60024B5B6813F0080F56
:100EC000FAD07047001002400070004008B5FFF7EC
:100ED00091FF08BD00B583B0164B1A6842F00102BD
:100EE0001A605A6842F080025A600023019302E0BF
:100EF000019B01330193019A44F61F639A42F7D98B
:100F00000C4B5A6822F003025A601A6822F084726D
:100F100022F480321A604FF41F029A601A6822F499
:100F200080221A6000225A60DA62FFF7CFFF03B016
:100F30005DF804FB0010024070B501F00F0E11F0D7
:100F4000100F03D0042A03D04EEA020E002209E05B
:100F50004EF0030EC26B1A43C263F7E744610560AB
:100F6000013292B2072A14D8012494401C40F7D0D1
:100F7000066895004FF00F0C0CFA05FC26EA0C06EB
:100F80000EFA05F535432829E8D04829E7D1046150
:100F9000E5E7082203E044614560013292B20F2A7E
:100FA0001AD84FF0010C0CFA02FC1CEA0304F4D02E
:100FB0004568A2F1080C4FEA8C0C0F2606FA0CF6D5
:100FC00025EA06050EFA0CFC4CEA05052829E2D0B4
:100FD0004829E1D10461DFE770BD016170474161DB
:100FE00070470AB1016170474161704730B4002811
:100FF00015DB1C4B5B68C0F3034482B200F4401C59
:10100000BCF5401F0ED010F4801F1DD04FF0030C14
:101010000CFA04F423EA040343F0E06309E0114B03
:10102000DB69E8E723F0E0630E4D6C6824F0E064D0
:101030006C6019B1410D09018A40134300280EDB91
:10104000084A536030BC70474FEA505C4FEA0C1CB2
:1010500002FA0CFC23EA0C0343F0E063E9E7014ADF
:10106000D361EFE70000014040F0BF6040F4003082
:10107000014BD860704700BF00ED00E070B5054639
:101080000E461446274BDB6803F4E063B3F5E06FCC
:1010900025D0244BDB6803F4E063B3F5C06F38D090
:1010A000204BDB6803F4E063B3F5A06F34D01D4B35
:1010B000DB6803F4E063B3F5806F30D0194BDB6875
:1010C00003F4E063B3F5407F02D10023042208E07B
:1010D0004FF4A060FFF7C8FF02231A4601E0042383
:1010E0000022C2F104029640C3F104030F2222FA47
:1010F00003F31C4034432401E4B20B4A531983F830
:10110000004305F01F016D0901238B4042F8253093
:1011100070BD03230122E4E702231A46E1E701231D
:101120000322DEE700ED00E000E100E0830903F1C7
:10113000804303F504331A6800F01F000121814049
:101140000A431A6070470000034A536823F44003BF
:1011500003435360704700BF0010024010B588B0D1
:1011600084463B4C94E80F000DF1200E0EE90F0071
:1011700002AB103494E8030083E80300CDE90001DA
:10118000344B5B68C3F38103022B23D032483149CF
:101190004B68C3F3031320336B4413F8102C20FA6D
:1011A00002F24B68C3F3022320336B4413F8183C5C
:1011B00022FA03F44B68C3F3C22320336B4413F8C1
:1011C000203C22FA03F3BCF1030F37D8DFE80CF020
:1011D00039383B3D1F4B5B6813F4803F0ED01D4BED
:1011E000DB6A13F0804F07D11B4A1A4B5B6813F47C
:1011F000003F04D0520802E0184AF6E7184A154B9F
:101200005868C0F383405B6813F0006F01D040F072
:101210001000104B5B6813F0804F09D040F02000A5
:10122000A0F10F032F2B07D8013002FB00F0AEE72F
:101230000E28F5D80230F8E73F20F6E7002000E05E
:10124000104608B010BD2046FBE71846F9E700BF7E
:10125000808600080010024000127A00006CDC0258
:1012600000093D0070B50446D0F8AC301E6A194D37
:101270002B464FF4A0720021B047D4F8AC301E6A60
:10128000EB1F4FF4807200212046B047D4F8AC30F9
:101290001E6AA5F11703C02200212046B0470E4B5D
:1012A0009A69C4F88820DB69C4F89C300B4B002293
:1012B0009A700121597019705A64094903C99864D8
:1012C000A3F84C10090C83F84E10C4F8B030104647
:1012D00070BD00BF1002002004000020440900205F
:1012E0009886000810B50446D0F8AC305B6A8121BE
:1012F0009847D4F8AC305B6A032120469847D4F86D
:10130000AC305B6A822120469847002010BDD0F89F
:10131000B030D0F8A8201278FF2A06D001229A70A7
:101320001A70D0F8A830FF221A7000207047D0F849
:10133000B03001229A7001EB410100EB8100C28BB9
:101340005A64704784B00346002201920292ADF8BD
:101350000C20D0F8B0004A78212A0FD0222A16D0CB
:10136000202A24D1D3F8A8C08CF800204830CA889D
:1013700098619A830020D88304B0704748309864FD
:101380000722A3F84C200020A3F84E00F4E7A12385
:101390008DF8043020238DF805300223ADF80A3093
:1013A0004B8803F003038DF80C300020E4E70120A4
:1013B000E2E708B5D0F8B02001EB410300EB83036E
:1013C000B3F84EC001EB410300EB8303B3F84430A4
:1013D0009C4503D001235370137008BD00231A46A7
:1013E00001F07F0100F048F8F7E738B5D0F8B040D9
:1013F000636C13B16278012A00D038BD0025657096
:101400009BB2E21C812100F037F86564F5E700002B
:1014100010B50446134B08201870012058704FF483
:10142000007CA3F802C05C60C4F8A410C4F8A82033
:101430000D4AC4F8AC200D4B63670D4BA3670D4BF1
:10144000E3674B68DB795B0903F002032371E0710A
:1014500013689847D4F8A430DB68D86800F072FAB3
:1014600010BD00BF9C0900202C020020A519000817
:101470003D1A0008751A00082DE9F04716461D466A
:1014800001F07F0707EB470900EB8909B9F84480B1
:10149000984528BF9846D0F8AC30DB6A42463946BA
:1014A000304698474644A5EB0805C9F84860A9F8B6
:1014B0004C50A9F84E80BDE8F08701207047D0F865
:1014C000A4301B681B781380D0F8A43018687047CC
:1014D000D0F8A43059688B78C97843EA0123138087
:1014E000D0F8A430586870470346D0F8A410886834
:1014F00040B18178C07841EA00211180D3F8A4304E
:1015000098687047002313807047D0F8A430DB68D8
:1015100053F82100037813807047000010B402468E
:10152000B1F804C05FFA8CF40B7803F003000128D3
:1015300026D002282AD0002843D19378023B012BE1
:1015400001D901203EE0137993B11F4B012119709D
:10155000137A8BB11C490B7843F002030B701A4BC2
:1015600093640223A2F84C30A2F84E30002029E008
:10157000154B00211970EBE7134B00211970EEE7B2
:101580009378032B1ED1002CE9D01BE09378032B1A
:1015900001D0012016E01CF0800F07D104EB4404B9
:1015A00002EB8404A17D084B1970D8E704F07F0496
:1015B00004EB440402EB840494F84610024B1970C7
:1015C000CDE7012010BC70479809002038B50546CA
:1015D0000C460B7813F0030003D002280FD0012033
:1015E00038BDAB78023B012B01D90120F8E74B88CD
:1015F000012B01D00120F3E700232B72F0E789884B
:10160000C9B2AB78032B01D00120E9E763887BB92D
:1016100081B1802910D0D5F8AC309B6B2846984713
:10162000D5F8A830DB682146284698470020D7E740
:101630000120D5E70120D3E70120D1E702460B784E
:1016400013F0030003D002280ED0012070479378D6
:10165000023B012B01D9012070474B88012B01D09F
:1016600001207047137270478B88DBB29078032893
:1016700001D001207047498859B963B1802B0CD043
:1016800010B5D2F8AC104C6B19461046A04700209C
:1016900010BD0120704701207047012070478B88E2
:1016A00083B9CB8883B94B8803F07F03437082787A
:1016B000032A0BD01BB10223837000207047012343
:1016C0008370FAE7012070470120704701207047BE
:1016D00070B504460D460B7813F003031FD0012BA1
:1016E00059D00126B4F84C30002B5FD0EA88002A8C
:1016F0005CD0934228BF1346A4F84C30B4F81120B4
:10170000934252D2B4F84420B3FBF2F102FB1133FE
:101710009BB2002B4CD10123E374002646E049889C
:101720000E0AC9B2731E0E2B3BD8DFE803F0081770
:10173000213A3A3A3A3A3A3A3A3A3A3A2D00731E4C
:101740001C4A52F8233000F14C029847A064EB8801
:10175000402BC7D10823A4F84C30C3E7013E154BFA
:1017600053F8263000F14C029847A0640126B9E7EF
:10177000052918D8013E0F4B53F8263000F14C02D2
:101780009847A0640126ADE700F14C02FFF7ACFEDC
:10179000A0640126A6E7D0F8A830DB689847064683
:1017A000A0E701269EE701269CE70026304670BD93
:1017B0000026FBE7A0860008002070478378DAB295
:1017C000022B03D0032A05D00120704703781BB1F8
:1017D0000120704703783BB180640123A0F84C30AE
:1017E000A0F84E30002070470120704738B54C8873
:1017F000E4B21E4B1C70012C02D90124204638BDD6
:1018000005468378DAB2022B03D0032A0FD00124D5
:10181000F4E7002CF2D0D0F8A8305B682146984756
:10182000124B1B782B700323AB700024E6E754B9EE
:10183000D0F8A8309B68214698470C4B1B782B703A
:101840000223AB70DAE701788C420DD0D0F8A830D3
:101850009B689847054B19782970D5F8A8305B68C4
:10186000284698470024C9E70024C7E79A090020C2
:1018700003468278032A01D001207047888810F03F
:10188000FF0001D001207047D3F8A82001329A64EC
:101890000122A3F84C20A3F84E207047034682781B
:1018A000032A01D001207047888810F0FF0001D082
:1018B000012070474A88D3F8A8305A70704700203A
:1018C0007047002393421ED200B510E00CF1370C94
:1018D00001F813C000014FEA430C0CF1010C4FF06A
:1018E000000E01F80CE00133DBB2934209D24FEA5B
:1018F000107CB0F1204FE9D20CF1300C01F813C08C
:10190000E8E75DF804FB704708B54A78024B53F8E6
:101910002230984708BD00BFAC86000808B5837820
:10192000032B01D0012008BD8B8813F0FF0F01D0DD
:101930000120F8E7D0F8A830DB689847F3E70120EA
:101940007047000038B504460378062B14D00F4BBF
:10195000D3F8E807D3F8EC57D3F8F037C01800D124
:1019600038BD0822A11CFFF7ACFF042204F11201CC
:101970002846FFF7A6FFF3E7054BD3F80031002B0D
:10198000EED043801B0C8380EAE700BF00F0FF1F0E
:101990000020024008B5B0F84C30826C0021FFF7FF
:1019A0006BFD08BD38B50446D0F8AC301B6B00F1B8
:1019B0000B050022114628469847082806D0D4F87F
:1019C000AC305B6B00212046984738BDE37A03F0CA
:1019D0006003202B12D0402B15D043BB2946204654
:1019E000FFF792FF18BBB4F811308BB9D4F8AC30C4
:1019F000DB6A00221146A06C9847E6E7294620469C
:101A0000FFF78CFFEEE729462046FFF798FFE9E74E
:101A100094F90B30002B06DBD4F8AC309B6A002124
:101A200020469847D1E72046FFF7B4FFCDE7D4F82A
:101A3000AC305B6B002120469847C6E738B50546B9
:101A40000C468378032B0ED004EB440305EB830391
:101A5000002199619983D983D5F8AC30DB6A0A46B5
:101A6000A86C984738BDD0F8A8305B69002BEBD044
:101A70009847E9E710B50446C37C43B1D0F8AC30D1
:101A8000DB6A00221146806C98470023E374A37838
:101A9000032B0FD0D4F8AC309B6A00212046984726
:101AA000637833B1D4F8AC30DB6820469847002324
:101AB000637010BDD4F8A8301B69002BEAD0204613
:101AC0009847E7E7084B0122C3F8402C0022C3F8EF
:101AD000402CC3F8442CC3F8502CD3F8402C42F4CB
:101AE0001F42C3F8402C704700500040054B0122B4
:101AF000C3F8402C0022C3F8442C0322C3F8402C26
:101B0000704700BF00500040437843F08003024A12
:101B1000C2F84C3C704700BF00500040184B1A6898
:101B2000802111601B6800225A604022A0F84420E6
:101B30009A60828248F2FF72DA6001220DE002F1BF
:101B4000805303F5B85399000B6823F40F4323F037
:101B50008F0313430B600132D2B2032AEFD9094B32
:101B6000D3F8002C92B2C3F8002C43F22022C3F821
:101B7000002C8022C3F84C2C01238370704700BFD7
:101B80006C0200200050004070B59E7806F07F0C7B
:101B90009D88DB7803F00303674C54F823400CF175
:101BA000805303F5B8539B0044EA0C041C6016F004
:101BB000800F29D11FFA85FE0CEB4C0400EB84004A
:101BC0008582002962D15D48006800EB0C108260BC
:101BD000BEF13E0F40F28D804FEA4E12013A574857
:101BE000006800EB0C1042F40042C260002940F093
:101BF0008D801A6822F4804222F070021204120CC6
:101C000082F400521A6070BD0CEB4C0400EB8400AF
:101C1000A0F8445081B94FEA0C1C4849096841F8C2
:101C20000C201A6822F4E04222F040021204120C46
:101C300082F020021A60E6E70129E4D1196821F454
:101C4000E24121F070010904090C41F4807119602E
:101C50004FEA0C1C3949086894B240F80C400968F6
:101C60006144120C8A601A6822F4E04222F04002B9
:101C70001204120C82F030021A601A6822F48042B8
:101C800022F070021204120C1A60BCE701299FD1E5
:101C9000186820F4E24020F070000004000C40F4CA
:101CA00080701860186820F4E04020F07000000494
:101CB000000C40F0400018604FEA0C141F4D2868DB
:101CC00096B2065128682044120C8260BEF13E0F85
:101CD00006D94FEA4E12013A42F40042426077E7D9
:101CE0000EF10102520222F47F7222F003024260DE
:101CF0006EE70EF101021148006800EB0C10520271
:101D000022F47F7222F00302C2606FE701297FF4A0
:101D10007AAF1A6822F4804222F070021204120C88
:101D20001A601A6822F4E04222F040021204120CF7
:101D300082F020021A6066E7E08600086C0200204C
:101D400001F07F0311F0800F1BD103F1805303F5E5
:101D5000B8539B001A6812F4804F09D01A6822F415
:101D6000E04222F070021204120C42F480421A6027
:101D70001A6822F4804222F070021204120C1A60D7
:101D8000704703F1805303F5B8539B001A6812F0B3
:101D9000400F09D01A6822F4E04222F070021204C7
:101DA000120C42F040021A601A6822F4E04222F05B
:101DB00040021204120C1A60704701F07F0101F119
:101DC000805101F5B85189000B6823F4804323F05A
:101DD00070031B041B0C83F440530B60704700001E
:101DE00011F07F0319D1254AD2F8003C23F4E043D7
:101DF00023F040031B041B0C83F01003C2F8003CCB
:101E0000D2F8003C23F4804323F070031B041B0C26
:101E100083F48053C2F8003C704711F0800F15D155
:101E200003EB430200EB82000122827503F1805331
:101E300003F5B8539B001A6822F4804222F0700226
:101E40001204120C82F480521A60704703EB4302B2
:101E500000EB8200012280F8462003F1805303F555
:101E6000B8539B001A6822F4E04222F040021204A8
:101E7000120C82F010021A60704700BF0050004040
:101E800001F07F0311F0800F23D103F1805202F59E
:101E9000B8529200116811F4804F09D0116821F4F2
:101EA000E04121F070010904090C41F48041116006
:101EB00003EB430300EB830000238375136823F4D3
:101EC000804323F070031B041B0C83F44053136006
:101ED000704703F1805202F5B8529200116811F078
:101EE000400F09D0116821F4E04121F0700109048C
:101EF000090C41F04001116003EB430300EB830345
:101F0000002183F84610136823F4E04323F04003D4
:101F10001B041B0C83F030031360704701F07F0338
:101F200003F1805303F5B8539B00186811F0800F3C
:101F300001D10020704700F03000704730B41546E2
:101F4000A2B10B01144A1268D35803F1005303F5F0
:101F500040535B00002204E030F8024B43F8044B8E
:101F6000013205F1010CB2EB5C0FF5D30A4B1B6893
:101F700003EB01135D6001F1805101F5B851890057
:101F80000B6823F4E04323F040031B041B0C83F095
:101F900030030B6030BC70476C020020844672B97D
:101FA000214B1B6803EB0113D868C0F309009B6841
:101FB00003F1005303F540535B0000222DE0012A9A
:101FC00030D101F1805303F5B8539B001B6813F027
:101FD000400F0ED00A01144B1B6803EB0111486837
:101FE000C0F309009B5803F1005303F540535B0015
:101FF000E3E70D4B1B6803EB0113D868C0F309003E
:102000009B6803F1005303F540535B00D5E753F899
:10201000041B2CF8021B013292B2411CB2EB510F8F
:10202000F5D37047002070476C020020064B5B68B8
:102030001B7A012B00D07047044AD2F8403C43F091
:102040001003C2F8403CF6E79C0900200050004015
:10205000064BD3F8402C22F00402C3F8402CD3F8EE
:10206000402C22F00802C3F8402C7047005000407A
:10207000034AD2F8403C43F00C03C2F8403C70479E
:102080000050004008B5012805D04FF48071054884
:10209000FEF7A5FF08BD4FF480710248FEF79DFFD3
:1020A000F8E700BF0020014008B58378DBB2C370B9
:1020B00004238370C37923B1D0F8AC301B699847EF
:1020C00008BD03238371FBE770B582B0874AD2F85D
:1020D000443C9BB2ADF80630D2F8443CD2F8402CD8
:1020E000134003F47F43ADF80430814B5D68BDF8C5
:1020F000043013F4004F40F0A880BDF8043013F40E
:10210000805F0DD0794B6FF48052C3F8442CEB788C
:10211000DBB2AB706B7A1BB9D5F8AC305B69984712
:10212000BDF8043013F4006F06D0704BD3F8403C78
:1021300013F0100F00F0C480BDF8043013F4007FDA
:102140000AD06A4B6FF40072C3F8442C694B1B68C9
:1021500013B11B6828469847BDF8043013F4807FFC
:1021600017D0624B6FF48072C3F8442CAB7983B103
:10217000013BDBB2AB7163B96B7A002B00F0A98035
:102180005A4AD2F8403C23F01003C2F8403C0023E6
:102190006B72BDF8043013F4806F09D0534B6FF4A9
:1021A0008062C3F8442CD5F8AC30DB6928469847E8
:1021B00002B070BDD5F8AC301B6B04EB440605EBE8
:1021C000860600222146B0699847B3690344B3618B
:1021D000F38B03449BB2F383B28B934202D2B38A54
:1021E000834209D904EB440305EB83039B6F63B37C
:1021F00021462846984728E0D5F8AC309B6A21460E
:102200002846984721E004F1805303F5B8539B001A
:102210001A6812F0800F18D01A6822F4E14222F0F6
:1022200070021204120C1A6004EB440305EB8303E2
:10223000B3F84C30002B39D104EB440305EB830396
:10224000DB6F13B1214628469847284BD3F8443C0E
:102250009AB2ADF8062013F4004F3FF44EAFBDF82C
:10226000064004F00F04BDF8063013F0100FCAD07A
:1022700004F1805303F5B8539B001A6812F4004F21
:10228000E3D01A6822F070021205120D1A601B6862
:1022900013F4006F8ED0002C8AD104EB440305EBBD
:1022A00083035B6F214628469847CEE704EB440240
:1022B00005EB8202926C21462846FFF7DDF8C4E761
:1022C0002846FFF7F1FE094B6FF40062C3F8442C77
:1022D00032E7064AD2F8403C43F01003C2F8403CD3
:1022E0000323AB7101236B7253E700BF0050004022
:1022F0009C090020940900207047FEE7FEE7FEE7F6
:10230000FEE770477047704708B5FFF7DDFE08BD70
:1023100010B50020FEF722FF04464FF4C160FEF71F
:1023200005FF124B9C420DD0114B9C420FD0114B1C
:102330009C4210D0104B9C4212D040F21770FEF716
:10234000F5FE10BD4FF48000FEF7FEFEF5E700201D
:10235000FEF7FAFEF1E74FF44000FEF7F5FEECE77A
:102360004FF40000FEF7F0FEE7E700BF006CDC0270
:1023700000A24A0400D8B805000E270708B54FF49C
:102380008073032210210248FEF7D6FD08BD00BF6E
:102390000020014008B54FF4A060FEF765FE002262
:1023A00002211420FEF76AFE002201211320FEF70D
:1023B00065FE08BD2DE9F041884615460E4BD3F861
:1023C000B07000260EE02C467C64224608EB060125
:1023D000F81CFDF7F9FE01237B700748FFF705F8AD
:1023E00026442D1B002D03DD402DECD94024EBE7C6
:1023F0003046BDE8F08100BFA80900200C4B1B68E7
:102400000C4AA2FB03239B09013BB3F1807F0DD251
:102410004FF0E0225361084BF02183F82310002194
:1024200091610720106183F823107047FEE700BF19
:1024300000000020D34D621000ED00E0034B186057
:10244000024B1B68002BFBD1704700BFA409002082
:1024500038B5FFF7D3FF40F20360FEF767FE0121B6
:102460001C48FEF7C3FD0423032210211A48FEF77F
:1024700063FDFFF74DFFFFF781FF184C184A19491C
:102480002046FEF7C5FFFFF785FFD4F8AC309B6808
:10249000012098470523A370104B9B78032BFBD199
:1024A00000240D4D012204212846FEF79AFD4FF429
:1024B000FA70FFF7C3FF002204212846FEF791FDC2
:1024C0004FF4FA70FFF7BAFF2146074800F0E8F82A
:1024D0000134E6E700023000000C0140A8090020AA
:1024E0000400002024000020F0860008034B1B6835
:1024F0001BB1024A1368013B13607047A409002016
:1025000008B5FFF7F3FF08BD024A0349034800F08E
:10251000A5B800BF70020020AD5E00088002002058
:102520000C4B4168994210B5044601D003F0BEFC43
:10253000A168094B994202D0204603F0B7FCE1683C
:10254000064B994204D02046BDE8104003F0AEBCD3
:1025500010BD00BF640A0020CC0A0020340B00200C
:102560002DE9F8432A4A2B4C2B49DFF8B090DFF8CD
:10257000B0802C4F1160002504230822294604F165
:102580005C00294EA560C4E90335C4E90055C4E9DF
:102590000555656600F0E0F8244B6367082229467C
:1025A00004F1C400C4E90749C4E90987C4E91A551C
:1025B000C4E91E552567C4F8CC50C4F88050E662C3
:1025C00000F0CAF81A4BC4F8DC30294604F168035D
:1025D000082204F59670C4F88430C4E92298C4E94E
:1025E0002476C4E93455C4E93855C4F8D850C4F841
:1025F0003451C4F8E85000F0AFF804F1D003C4E956
:102600003C98C4E93E76C4F8EC30BDE8F88300BFDE
:102610009C0B0020640A002009250008C926000838
:10262000ED2600082D2700085127000809000100A9
:1026300012000200436B03B17047044B044A1B684D
:102640004263002BF8D1FFF78BBF00BF9C0B00202B
:1026500021250008704700BF704700BF2DE9F843EF
:102660000746884616464FF00009D6E90154013D59
:1026700010D4A389012B08D9B4F90E3001332146B7
:10268000384602D0C04749EA0009013D6B1C04F1FD
:102690006804EED13668002EE7D14846BDE8F883DD
:1026A0000FB400B5074983B004AB086853F8042B96
:1026B0008168019300F0C2FE03B05DF804EB04B042
:1026C000704700BF7C02002010B50C46B1F90E1017
:1026D00000F0B8F8002803DB236D0344236510BD28
:1026E000A38923F48053A38110BD00BF2DE9F041DD
:1026F0000C46B1F90C101F46CB05054616460BD407
:1027000021F48051A1813B46B4F90E10324628468F
:10271000BDE8F04100F0ACB8B4F90E10022300227D
:1027200000F07AF8B4F90C10EAE700BF10B50C46D7
:10273000B1F90E1000F070F8B4F90C30421C0EBF65
:1027400023F4805343F480532065A38110BD00BF60
:10275000B1F90E1000F04EB8830730B546D084189A
:10276000844604E003F8011B9D0704D09C46A44561
:102770006346F7D130BD013A0244A2EB0C02032AB2
:1027800029D9CCB204EB04240F2A04EB04442FD93A
:10279000A2F1100C2CF00F0C03F11005AC44C3E9AE
:1027A0000044C3E9024410336345F8D112F00C0F22
:1027B00002F00F0E18D02EF0030C9C44AEF104056D
:1027C0001A4642F8044B6245FBD125F0030404335A
:1027D0000EF003022344002ACCD0C9B21A4403F8F5
:1027E000011B9342FBD130BD7246F4E70346C6E7B6
:1027F0009646E0E738B5074D0022044608462A60B1
:1028000000F052F9431C00D038BD2B68002BFBD0E0
:10281000236038BDA00B002038B50D46084C844617
:10282000114628461A4600232360654600F00AF93F
:10283000431C00D038BD2368002BFBD02B6038BD73
:10284000A00B002038B50D46084C8446114628469A
:102850001A4600232360654600F06CF8431C00D044
:1028600038BD2368002BFBD02B6038BDA00B0020A7
:1028700038B50D46084C8446114628461A460023B2
:1028800023606546FFF796FD431C00D038BD2368E2
:10289000002BFBD02B6038BDA00B002070B50F4B78
:1028A0000F4DAB42A3EB050607D0B610002455F838
:1028B000043B01349847A642F9D805F0D5FE094DEE
:1028C000094B5E1BAB424FEAA60606D0002455F822
:1028D000043B01349847A642F9D870BD5C8A0008D1
:1028E0005C8A00085C8A0008608A00080D4B1B683F
:1028F00010B504460BB15A6B62B144B1012C0DD036
:10290000022C0ABF084BA4F12000186810BD074B29
:10291000186810BD1846FFF78DFEEEE7044B1868E7
:1029200010BD00BF7C020020480C0020500C00208D
:102930004C0C00202DE9F04184B080460F4616462D
:102940001A4DFFF7D3FF002402E00134142C03D00A
:1029500055F834309842F8D14046FFF7C7FFCDE92B
:10296000000702960627E84638464146ABBE0746B2
:10297000002F0BDB142C05D005EBC4056B68DB1BAB
:1029800033446B60F01B04B0BDE8F08103F048FEF7
:1029900013250446002628463146ABBE05464FF0B7
:1029A000FF30256004B0BDE8F08100BFA80B002017
:1029B0002DE9F04383B007460E469046204DFFF7C1
:1029C00095FF002402E00134142C0ED055F8343069
:1029D000984205EBC40CF6D1B8F1010F08D1DCF830
:1029E0000400D6B10644E84606E0B8F1010F23D052
:1029F000B8F1020F14D0E8463846FFF777FF0A27F0
:102A0000CDE9000638464146ABBE0746142C11D02E
:102A100097B905EBC4046660304603B0BDE8F083A7
:102A200000904FF00C09E84648464146ABBE81464F
:102A30004E44E1E7002FEFD04FF0FF30EDE700BF4D
:102A4000A80B0020F8B5FFF7B3FF0446013001D012
:102A50002046F8BD03F0E4FD132605460027304666
:102A60003946ABBE06462E602046F8BD30B583B071
:102A7000FFF73CFF0B490190002302E00133142BC8
:102A800007D051F833209042F8D14FF0FF3241F88F
:102A90003320022401AD20462946ABBE0446204621
:102AA00003B030BDA80B0020F8B5FFF7DFFF0446E8
:102AB000013001D02046F8BD03F0B2FD13260546D3
:102AC000002730463946ABBE06462E602046F8BD8C
:102AD000062900B54FF0180404D0054D20462946BC
:102AE000ABBE0446034D20462946ABBE044600BF9C
:102AF000260002002300020000B51824024D2046E3
:102B00002946ABBE044600BF2600020001207047E4
:102B10000D4A0346106810B598B1034469468B42CC
:102B200008D80A490A4C0968A14201D08B4201D851
:102B3000136010BD03F074FD0C2303604FF0FF30F1
:102B400010BD04481060E8E7A40B0020A00300209B
:102B5000ADDEFECA880C002010B50C462046582277
:102B60000021FFF7F9FD4FF400524FF480636260DB
:102B7000A364002010BD00BFF0B5194B1B6883B0E3
:102B800004460BB15A6BB2B194B1012C17D0022C90
:102B900006BF144B1C68203C019401AD092420465B
:102BA0002946ABBE0446631C0CD0204603B0F0BDE2
:102BB0000D4B1C68F0E71846FFF73CFDE4E70B4BB4
:102BC0001C68E9E703F02CFD132605460027304674
:102BD0003946ABBE064620462E6003B0F0BD00BFAE
:102BE0007C020020480C0020500C00204C0C0020DF
:102BF0002DE9F84306460820894603F017FDDFF863
:102C00009C800546304600F015FCD8F808305F6817
:102C100027F00307A7F11104A4EB09042C44B4FB2B
:102C2000F5F4013C05FB04F4A54208DC0021304624
:102C300003F0E4FCD8F808303B44984205D0304615
:102C400000F0FAFB0020BDE8F8836142304603F053
:102C5000D5FC01300FD0124AD8F808303F1B47F09E
:102C600001075F60136830461B1B136000F0E4FB34
:102C70000120BDE8F8830021304603F0BFFCD8F8FE
:102C80000820831A0F2BDADD43F001035360054B54
:102C900003491B68C01A0860D1E700BFB0030020D9
:102CA000540C0020A403002000295BD0F8B50C468A
:102CB000074600F0BFFB54F804CC744DA4F10802A1
:102CC0002CF00103D118A8684E68884226F003064C
:102CD0000CF0010E7ED088194E60406800F00100B3
:102CE000BEF1000F2FD154F8084C121B23449468F6
:102CF00005F1080C644562D0D2F80CE0C4F80CE091
:102D0000CEF8084000287FD043F0010050600B60EF
:102D1000B3F5007F2FD2D90868685C09013101231F
:102D200009B2A34003436B6055F83100906005EB96
:102D3000C103083BD36045F83120C2603846BDE886
:102D4000F84000F079BB70B9334405F1080C88688D
:102D5000604543F0010471D0C968C1608860546067
:102D6000D350D5E770474CF00101B3F5007F44F82C
:102D7000041CD350CFD3B3F5206F4FEA532045D274
:102D8000980900F1390109B200F13804C900681846
:102D900069580838884203D157E08968884204D0CE
:102DA0004C6824F003049C42F7D8C868C2E90210BA
:102DB00082603846CA60BDE8F84000F03DBB88BB81
:102DC0001E44D1E90213CB60996046F001035360C1
:102DD0009651B3E71E44BEF1000F07D154F8083CEA
:102DE000D21A1E44D2E90213CB60996046F0010367
:102DF0005360274BAA601B68B3429FD8254B3846C7
:102E00001968FFF7F5FE99E73344A0E714280ED9B7
:102E1000542821D8180B00F16F0109B200F16E049B
:102E2000C900B4E743F0010050600B6086E700F191
:102E30005C0109B200F15B04C900A8E7C5E90422FE
:102E4000C2E902CC5460D35078E76E68A410012325
:102E5000A34033436B60A9E7B0F5AA7F07D8D80B2E
:102E600000F1780109B200F17704C9008FE740F260
:102E70005451884206D8980C00F17D0100F17C0481
:102E8000C90084E74FF47E717E2480E7B003002000
:102E9000A8030020840C00202DE9F04F01F10B0560
:102EA000162D83B0064623D8102900F2B48000F016
:102EB000C1FA102518230220B94F3B44A3F10802A0
:102EC0005C68944200F065816368E268A16823F061
:102ED0000303CA602344304691605A6842F00102FD
:102EE0005A6000F0A9FA0834204603B0BDE8F08F1C
:102EF00035F0070500F18F80A94200F28C8000F0C8
:102F000099FAB5F5FC7FC0F0BA815FEA552E00F062
:102F10008980BEF1040F00F272814FEA951E0EF116
:102F2000390003B20EF1380EDB009D4F3B44A3F194
:102F3000080C5C68A44507D10DE0002AE16880F226
:102F400022818C4507D00C46636823F003035A1B8B
:102F50000F2AF2DD7046DFF84C823C69444500F0F0
:102F6000FF80636823F0030CACEB05030F2B00F329
:102F70008B81002BC7E9048880F27581BCF5007F46
:102F8000D7F804E080F01A814FEADC03013319B26C
:102F90004FEA5C1C012303FA0CF357F83120A260BE
:102FA0004EEA030E07EBC103083BE360C7F804E0F9
:102FB00047F83140D46083104FF0010C0CFA03FC49
:102FC000F44535D81CEA0E0F08D120F003004FEA73
:102FD0004C0C1CEA0E0F00F10400F8D007EBC00AFD
:102FE000D6468146DEF80C300BE0596821F003012B
:102FF0004A1B0F2A1C46DB6800F31181002A80F26D
:1030000025819E45F1D109F1010919F0030F0EF157
:10301000080EE7D163E10C2333600024204603B09F
:10302000BDE8F08F4FF4007340204FF03F0E7CE777
:10303000BC68636823F00309A94504D3A9EB050321
:103040000F2B00F39080584B1B68082003F11008E9
:1030500004EB0903009303F0E9FA544A13680133BF
:10306000A844834605D008F1FF388044434203EA70
:1030700008084146304603F0C1FAB0F1FF3F4B4A21
:10308000824600F01D8104EB0903834200F21681A1
:10309000474B186840440BF1FF311860844600F03C
:1030A00074811068013000F07C8104EB0902AAEB06
:1030B000020262441A601AF00702CDE9002300F010
:1030C0003381C2F108029244D04408EA01005A4414
:1030D000121A02EA010B5946304603F08FFA421CDD
:1030E000019B00F07B81A0EB0A0000EB0B08186845
:1030F000C7F808A048F001025844BC42CAF80420AE
:10310000186016D0B9F10F0F40F24E816168A9F135
:103110000C0222F0070201F00101114361604FF03F
:10312000050CA1180F2AC1E901CC00F25F81DAF881
:103130000420204B1968814238BF18601E4B196863
:10314000814238BF1860544622F00308A845A8EB16
:10315000050301D30F2B06DC304600F06DF95CE768
:10316000D7F804E027E7621943F0010345F00105B1
:1031700065603046BA60536000F05EF9083420465E
:1031800003B0BDE8F08FA2682344D16030468A6066
:10319000A3E6DC68A3427FF497AE0230DBE600BF13
:1031A000B0030020B8030020840C0020A4030020FA
:1031B000540C0020800C00207C0C0020BCF5206FFB
:1031C0004FEA5C2272D3142A00F2C08002F15C0341
:1031D0001BB25B32DB00F918FB580839994203D166
:1031E00098E09B68994204D05A6822F00302624535
:1031F000F7D8D968C4E902318C60DC60DBE6BEF147
:10320000140F60D9BEF1540F00F2AA804FEA153EA8
:103210000EF16F0003B20EF16E0EDB0085E6D4F8FE
:1032200008C03046661945F001056560CCF80C30E1
:10323000C3F808C042F00103C7E90466C6E9028882
:103240007360625000F0F8F80834E7E62144304635
:103250004A6842F001024A6054F8082FD3609A602D
:1032600000F0EAF8DAE6A4443046DCF8043043F033
:103270000103CCF8043000F0DFF80834CEE6E808AB
:10328000431C1BB2DB0017E6621943F0010145F055
:10329000010565603046C7E90422C2E90288516031
:1032A00044F80C3000F0C8F80834B7E64FEA9C1236
:1032B00002F139031BB23832DB008CE7BC425BD031
:1032C000BC68626840E70EF15C0003B20EF15B0E71
:1032D000DB002AE65AF80839534540F0A78010F081
:1032E000030F00F1FF30F5D17B6823EA0C037B600C
:1032F0004FEA4C0C9C453FF69BAEBCF1000F04D14D
:1033000096E64FEA4C0C09F104091CEA030FF8D0C9
:10331000484663E692104FF0010C0CFA02F24EEAB6
:10332000020EC7F804E065E70AEB08020A40ABEBBF
:10333000020202EA010B5946304603F05FF9431CD2
:10334000019B7FF4D0AEDDF800B0D0E6542A2FD830
:103350004FEA1C3202F16F031BB26E32DB003AE718
:10336000BEF5AA7F2FD84FEAD53E0EF1780003B202
:103370000EF1770EDB00D8E52D4B186808EB000C3A
:103380000BF1FF31C3F800C08BE61AEA010F7FF49E
:1033900088AED7F808A0C84448F00102CAF8042053
:1033A000C7E6C2F800A086E60123CAF80430D3E6D7
:1033B000B2F5AA7F25D84FEADC3202F178031BB2BE
:1033C0007732DB0007E740F254539E4524D8AB0C1C
:1033D00003F17D0003F17C0EC300A6E5009A083AD4
:1033E0009044A8EB0A084FF0000B80E6304604F149
:1033F00008010093FFF758FC009BD7F808A0186855
:1034000095E640F254539A420CD84FEA9C4202F19E
:103410007D03DB007C32DEE64FF47E737F204FF0CD
:103420007E0E82E54FF47E737E22D4E67B685FE7F2
:10343000540C0020704700BF704700BF2DE9F04FCB
:10344000C1B01C46089117460D9305460B9003F03A
:10345000D1F8026813921046FCF752FF12901DB18A
:103460006B6B002B01F0CA800899B1F90C309E04F7
:1034700006D44A6E43F4005322F400528B814A660C
:103480001D0740F1A980089A1269002A00F0A48063
:1034900003F01A030A2B00F0AE800023CDE9243399
:1034A0000F931493099300240023CDE9103430AA1C
:1034B000239293463B78002B00F0C7803C4604E003
:1034C00014F8013F002B00F0A580252BF8D1E51B57
:1034D00040F0A2802378002B00F0B7804FF000036B
:1034E00001348DF86B3000214FF0FF3307938A468B
:1034F000274617F8018BA8F12003582B00F2B28061
:10350000DFE813F03603B000B0003303B000B000C2
:10351000B000B000B000B00082012F03B0008A01FB
:103520004803B0004503590059005900590059009B
:103530005900590059005900B000B000B000B00067
:10354000B000B000B000B000B000B0003F032201F6
:10355000B0002201B000B000B000B0002C03B000F9
:10356000B0002803B000B000B000B000B0002403E9
:10357000B000B0001507B000B000B000B000B0005F
:10358000B000B000B000B000B000520262012201F1
:10359000220122018D016201B000B0006700B0007D
:1035A00046020A02DA016700B000B301B0009001E0
:1035B000B000B0004607A8F13003002117F8018BD6
:1035C00001EB810103EB4101A8F13003092BF5D98F
:1035D00091E74AF0100A8CE708990B9802F0BAFEBE
:1035E000002841F0E682089BB3F90C3003F01A037F
:1035F0000A2B7FF452AF089BB3F90E30002BFFF675
:103600004CAF08990B9823463A4641B0BDE8F04FBD
:1036100001F010BCE51B18D02498259B01302B44E9
:103620000728CBE900752593249005DC0BF1080BE6
:10363000099B2B4409934DE708990B9823AA01F0A5
:103640006BFC30B90DF1C00BF2E7259B002B41F06C
:103650001681089B9B895B0601F1AB82099841B0FA
:10366000BDE8F08F0A91B8F1000FEED000230122DF
:103670008DF898808DF86B3007930C920E9326ADE1
:103680000692259C1AF08403214600F0A4819DF83F
:103690006B2022B3249A002601320DF16B01013414
:1036A000CBF80010072A4FF00101CDE92424CBF814
:1036B000041000F343830BF1080B86B1249A013206
:1036C0001BA90234CBF80010072A4FF00201CDE904
:1036D0002424CBF8041000F33F830BF1080B802B5C
:1036E00000F07382079B0C9A9E1A002E00F38481CF
:1036F0001AF4807F40F0CB810C9BCBF804301C4443
:10370000249BCBF800500133072B2594249300F31E
:10371000B9820BF1080B1AF0040F05D00A9B069A28
:103720009D1A002D00F32683DDE9093206998A42AD
:10373000ACBF9B185B180993002C40F08B820023D0
:1037400024930DF1C00BB5E60D9B0A91073323F0CE
:103750000702F2E80234CDE91034189324F0004354
:103760001993DDE918450D92AA4B4FF0FF32204620
:103770002946FDF7DBFA002840F0C3842046A54B1C
:103780004FF0FF322946FDF7B3FA0446002840F017
:10379000B884DDE91001002200232AF0800AFDF739
:1037A0009DFA002840F0F0879DF86B30B8F1470F84
:1037B000CCBF994D994D002B41F0758203220793A0
:1037C0000C920E9306925CE70D9B0A911AF0100F73
:1037D00003F1040400F020850D9B1B681946002BA3
:1037E000C0F23484079D9DF86B20002D1046C0F276
:1037F0003E852AF0800A002B40F03985002D00F02C
:10380000FA87302300F038BD0D9B53F8041B0029C4
:1038100080F2438449420D934AF0040A69E64AF073
:10382000400A66E61AF010000A9100F0FE84079A3A
:103830000D9B0020824253F8041B8DF86B00C0F2F0
:1038400002852AF0800A002900F03A84092901F251
:103850005D820D93079B012B01F13001B8BF01235D
:103860008DF8BF10069300F00BBC0D9C079B54F81D
:10387000045B0A9100268DF86B60002D00F0AC858A
:10388000002BC0F2DF851A4631462846FCF7A8FD1A
:103890009DF86B30002801F0A580421B0C9222EAB3
:1038A000E2720692002B00F0D98513460133CDE970
:1038B0000D4607960693E4E6079A0D9D0A9147F692
:1038C0003003ADF86C30002A4FF000038DF86B30F8
:1038D00055F8043BC0F2F7842AF0800646F0020651
:1038E000002B40F0CD860799002940F0A387DDE941
:1038F00024241AF00403214610460C9300F0B385EB
:10390000079B0C930E9302230D950693B24630ADA0
:103910004FF078080423D2E61AF010020A9100F062
:10392000DA8307990D9A002300298DF86B3052F83D
:10393000043B04DB2AF0800A002B00F0A8840D92DF
:1039400030AD03F007023032DB08294605F8012DBF
:10395000F7D11AF001030E9300F0E482302A00F050
:1039600058863023023930AA05F8013C521A9DF8D6
:103970006B300C92079A0C988242B8BF02460692AE
:1039800013B1069B0133069300230D460E9378E690
:103990001AF0100F00F061840D9B099A1B681A60E1
:1039A0000D9B04330D9385E50D9B0A910022114672
:1039B0008DF86B20079253F8042B259C0D9301235F
:1039C0000C9306931AF084030E918DF8982026AD7F
:1039D00021467FF45CAE0A9A0698161A002E00F370
:1039E000B3829DF86B20002A7FF454AE079B0C9A9B
:1039F0009E1A002E7FF77CAE102E249ADFF82090BE
:103A000034DD59462046CB460B9CB94610232F4641
:103A1000089D0CE0FFFFEF7F048700080087000887
:103A200014880008103E102E01F1080119DD013242
:103A3000DFF800C31030072AC1E900C3CDE9242014
:103A4000F0DD23AA2946204601F066FA00287FF41B
:103A500000AE103E102EDDE9242030A94FF01003F7
:103A6000E5DC3D4604464F46D9468B460132344498
:103A7000072ACDE92424CBF80090CBF8046000F3AA
:103A8000D3821AF4807F0BF1080B3FF435AEB8F106
:103A9000650F40F30381DDE9100100220023FDF7EB
:103AA00013F9002800F0A681249BA34ACBF800203C
:103AB000013301340122072B25942493CBF80420F1
:103AC00000F38F850BF1080B1C9B0F9A934280F239
:103AD000DF82129B139A1C44CBE90023249B25947C
:103AE0000133072B249300F361840BF1080B0F9B28
:103AF0005D1E002D7FF70FAE102D249BDFF8349252
:103B000040F3B58049462246B946DDF82C80089C32
:103B100010260F4605E00BF1080B103D102D40F369
:103B2000A28001331032072BCBE90076CDE9243295
:103B3000F1DD23AA2146404601F0EEF900287FF48A
:103B400088ADDDE924320DF1C00BE6E70A914AF0B9
:103B5000100A6CE60A914AF0100AE2E64AF0080AF6
:103B6000C7E42B238DF86B30C3E44AF0010AC0E4AC
:103B70009DF86B30002B7FF4BCAC20238DF86B30AC
:103B8000B7E40D9B0A914AF0100A1C1D24E64AF086
:103B9000800AAEE417F8018BB8F12A0F01F0D58046
:103BA000A8F13003092B98BF002200F2B68717F85E
:103BB000018B02EB820203EB4202A8F13003092BD6
:103BC000F5D942EAE273079395E40A9B069A9E1A96
:103BD000002E7FF787AD102E249ADFF858912BDD49
:103BE00059462046BB464C462F46DDF82C90089D92
:103BF000102304E0103E102E01F1080117DD013200
:103C00001030072AC1E90043CDE92420F2DD23AAC0
:103C10002946484601F080F900287FF41AAD103E8D
:103C2000102EDDE9242030A94FF01003E7DC3D46DB
:103C3000A1465F4604468B4601323444072ACDE94B
:103C40002424CBF80090CBF8046000F30C850BF132
:103C5000080B47E508990B9823AA01F05DF90028A5
:103C60003FF46DADF5E414463A464F4691460133B4
:103C70002C44072BCBF80090CBF80450CDE924342A
:103C80007FF747AD08990B9823AA01F045F9002862
:103C90007FF4DFAC259C0DF1C00B3CE50F9B249E0F
:103CA000012B04F1010406F101060BF1080840F3B1
:103CB0001E810123072ECDE92464CBF80050CBF8F8
:103CC000043000F3F583129B139A01361C44072E2F
:103CD000C8E90023CDE9246400F3F88308F108085B
:103CE0000F9BDDE9100103F1FF3B00220023FCF7ED
:103CF000EBFF002840F06C81013601355C44072E53
:103D0000CDE92464C8F80050C8F804B000F3FD8081
:103D100008F10808149BC8F8043001361C44072E2B
:103D20001EABCDE92464C8F80030ABDC08F1080B09
:103D3000F1E400BF148800084087000808990B9838
:103D4000159323AA01F0E8F800287FF482AC259CA3
:103D5000159B0DF1C00BB0E408990B98159323AA9D
:103D600001F0DAF800287FF474AC259C159B0DF166
:103D7000C00BB4E4102D249BDFF8C89227DD4A461F
:103D8000DDF82C80DDF820A0B9461026174604E0A7
:103D9000103D102D0BF1080B16DD01331034072BED
:103DA000CBE90076CDE92434F2DD23AA5146404622
:103DB00001F0B2F800287FF44CAC103D102DDDE985
:103DC00024340DF1C00BE8DC3A464F4691460133EE
:103DD0002C44072BCBE90095CDE924347FF7A4AC24
:103DE00008990B9823AA01F097F800287FF431ACCA
:103DF000259C99E41C99002940F3A283DDE90E83F8
:103E00009845A8BF9846B8F1000F0BDD249B0133FD
:103E10004444072BCBE900582594249300F3AF8545
:103E20000BF1080B0E9EB8F1000FA8BFA6EB080619
:103E3000002E00F3DD821C9B0F9A934280F2AB822E
:103E4000129A13991444CBE90012249A2594013252
:103E5000072A249200F385850BF1080B0F9A0E991F
:103E6000D31A561A9E42A8BF1E46002E0EDD249A73
:103E7000CBF8046001320D443444072ACBF80050DB
:103E80002594249200F388850BF1080B002EACBF1B
:103E90009D1B1D46002D7FF73EAC102D249BDFF8A7
:103EA000A8917FF7E4AE49462246B946DDF82C805A
:103EB000089C10260F4605E00BF1080B103D102D55
:103EC0007FF7D1AE01331032072BCBE90076CDE975
:103ED0002432F1DD23AA2146404601F01DF80028D6
:103EE0007FF4B7ABDDE924320DF1C00BE6E71AF041
:103EF000010F7FF4DEAE0123072ECDE92464CBF859
:103F00000050CBF804307FF705AF08990B9823AA2F
:103F100001F002F800287FF49CABDDE924640DF188
:103F2000C008F7E607999DF86B3030AA521B914202
:103F3000B8BF11460C920691002B3FF4A2AB0B4682
:103F400001330693FFF79DBB2498DFF8F890102EFD
:103F500027DD5A461595BB460B9D4F4610249946C2
:103F600004E0103E102E02F1080215DD0130103180
:103F70000728C2E90074CDE92401F2DD089923AADB
:103F8000284600F0C9FF00287FF463AB103E102ED6
:103F9000DDE9240130AAE9DC159D4B46B9465F46B0
:103FA0009346421C7418072ACDE92424CBF80090CC
:103FB000CBF8046000F3AD829DF86B100BF1080B99
:103FC00000296DD1002B3FF48DAB0B46FFF777BB7B
:103FD0000F9B012B7FF79EAE112BDFF86C9040F307
:103FE0006283224610254C46B946089F07E008F137
:103FF0000808ABF1100BBBF1100F40F351830136F1
:104000001032072EC8E90045CDE92462EFDD0B9898
:1040100023AA394600F080FF00287FF41AABDDE9BF
:1040200024620DF1C008E4E708990B9823AA00F078
:1040300073FF00287FF40DAB259C0DF1C00BFFF73B
:1040400057BB00BF24880008148800085942079B0A
:104050002D20002B8DF86B00C0F2B58109292AF0C4
:10406000800A00F2DE82079B012B01F13001B8BF0C
:1040700001238DF8BF100693069B013306930D9420
:1040800001230C9300230E930DF1BF05FFF7F9BA3E
:104090001AF0010F3FF43FAB1BE50D93FFF729BA70
:1040A0001E460023FFF7F8BA07988DF86B400028EA
:1040B0001146C0F2DA832AF0800A002A7FF4C6ABE8
:1040C000079A0D93002A40F054860C920E920692A5
:1040D00030ADFFF7D6BA0D9951F8043B0D911AF0A7
:1040E000400100F032838DF86B20079A002A9BB2C2
:1040F000FFF626AC2AF0800A002B00F086830D9A8A
:104100001DE4DDE9100102460B46FCF70FFE002816
:1041100040F0B185079A4AF4807301321593119BE0
:1041200000F04A84B8F1670F00F0FB84B8F1470F44
:1041300000F0D483002BC0F2E784B8F1650F81460C
:1041400003D0B8F1660F00F0D385DDE91034CDE976
:104150001634079B1E46013307934523069302231B
:10416000009321AB04931DAB079C03931CAB0194FC
:1041700002930B98DDE9162302F0FEFAB8F1660F00
:104180000546044440F037852B78302B00F04D85F0
:104190001C9B1C44DDE9160100220023FCF794FD62
:1041A000002840F05B85219B9C4240F234864622E9
:1041B000069230215A1C21921970219BA342F9D3F7
:1041C0001C9A0E925B1B0F93069B472B00F01684E4
:1041D000B8F1660F40F0D4850E9A0AF00103002A68
:1041E00043EA060340F3CF85002B40F05F850E9B2A
:1041F00006930C934FF06608B9F1000F00F0A3830B
:10420000069BDDF854A0013306932D238DF86B3007
:1042100000230793FFF735BA0D9B1B681AF0400F78
:1042200018BF1BB21946FFF7DABA0D9B1AF040040B
:1042300053F8042B3FF438AF91B2079A8DF86B0016
:10424000002ABFF6FEAA092900F2878230310D93B9
:1042500001238DF8BF10069312E71AF0400F3FF4C8
:104260009BAB0D9B099A1B681A80FFF799BB092B22
:1042700000F2D7813033DBB28DF8BF30079B012BC2
:10428000B8BF01230693002A7FF4F6AEF7E607993C
:1042900000297FF454AB0D921AF001030C9300F047
:1042A000AE8230239DF86B208DF8BF300DF1BF0535
:1042B000002A00F0A8810C9B00220133079206938C
:1042C0000E92FFF7DEB903F00F02B8491B098A5CB2
:1042D0008DF8BF204AF0020200F08D85924602223E
:1042E0000D954FF0780806920DF1BF0503F00F020F
:1042F0001B098A5C05F8012DF8D1079A069930ABA5
:104300005B1B9A420C93B8BF1A460AF0840300293B
:1043100000F06D8502320692DDE924242146104624
:10432000002B00F0A78000210E91FFF7C8B90A9179
:104330009F490D9A1AF0100F52F8043B0D9203D1C9
:104340001AF0400F18BF9BB21AF00102069200F05B
:104350009C80002B00F0348130228DF86C200022EC
:104360008DF86B2007988DF86D8003F00F02002800
:104370008A5C8DF8BF20C0F220822AF080021B09DF
:1043800042F0020200F02685924602220692ABE736
:104390000A918649CDE71AF0010F7FF451AD0E99CD
:1043A000D31A561A9E42A8BF1E466FE508990B986D
:1043B00023AA00F0B1FD00287FF44BA9259C0DF144
:1043C000C00BFFF794BB092900F22B813031012388
:1043D0008DF8BF1006934FE6062B28BF06232A460A
:1043E00007950693734D0D940C930E92FFF749B900
:1043F000102E249BDFF8C09140F3B78148465A46FF
:104400002146AB46B9460B9C089D4FF01008074665
:1044100004E00832103E102E40F3A1810133103128
:10442000072BC2E90078CDE92431F2DD23AA294621
:10443000204600F071FD00287FF40BA9DDE924314E
:1044400030AAE7E72846FBF75BFF9DF86B300C903E
:1044500020EAE0720692002B7FF427AACDE90D43F3
:104460000793FFF70EB902230D95B2464FF0780877
:1044700030AD06930A9B069E9E1B002E4FF0000354
:104480000E937FF71CA902235FE5069A8DF86B2037
:10449000079A002A28DB2AF0800A2BBB079A002AF9
:1044A00040F0BC81079B0C930E9330ADFFF7E9B849
:1044B00008990B9823AA00F02FFD00287FF4C9A8C3
:1044C000DDE924640DF1C008FFF7FDBB08990B98E6
:1044D00023AA00F021FD00287FF4BBA8DDE92464B5
:1044E0000DF1C008FFF7FCBB03F00F021B098A5C4B
:1044F0008DF8BF207FF4F8AE069B0E9301230C933A
:10450000079B012BB8BF012306930DF1BF05FFF7F1
:10451000B8B808990B98159323AA00F0FDFC002861
:104520007FF497A89DF86B20259C159B002A00F02E
:1045300001811E46249A03460DF1C00BFFF7ACB86B
:10454000249B1E4ACBF80020013301340122072BA3
:1045500025942493CBF8042000F340810BF1080B41
:10456000002940F0AC800F9A0AF0010313433FF496
:10457000D2A8129B13991A19CBE90013249B2592F8
:104580000133072B249300F383810BF1080B0F9960
:10459000CBF8005001338C18072BCDE92434CBF82D
:1045A00004107FF7B6A8FFF76DBB00BF2487000893
:1045B0001087000838870008148800084087000822
:1045C000079A8DF86B30002AC0F2ED802AF0800A3D
:1045D00040F03F81079B0C930E93069330ADFFF79D
:1045E00050B808990B9823AA00F096FC00287FF495
:1045F00030A8259C0DF1C00BFFF766BA0B98FEF7AB
:1046000019F8FEF731BF0C9B079206930E92FFF745
:1046100038B830AA521B9DF86B300C922946FFF730
:10462000A9B90D94A84C30ADA4FB0123DB0803EB22
:104630008302A1EB4202303205F8012D0A46092A15
:104640001946F1D8079A30AB5B1B9A42B8BF1A469D
:104650000C930692002875D013460133069300236D
:104660000E93FFF70EB808990B9823AA00F054FC9C
:1046700000287EF4EEAF259C0DF1C00BFFF732B899
:1046800003F00F0291491B098A5C8DF8BF2000F0EE
:10469000C8830222B2460D954FF07808069223E6B1
:1046A0004F46A146144601365C44072ECDE92464EA
:1046B000C8F80090C8F804B07FF72AAB25E4129B35
:1046C00013981A19CBE90003249B25920133072B79
:1046D000249300F3DD800BF1080B0029BFF657AFE0
:1046E0004E421031DFF8E89180F26D82484659461B
:1046F000B946DDF82C80DDF820B02F4610240546A1
:1047000004E00831103E102E40F35882013310327D
:10471000072BC1E90054CDE92432F2DD23AA594622
:10472000404600F0F9FB00287EF493AFDDE9243227
:1047300030A9E7E7002B6DD013460DF1C00B249A8A
:10474000FEF7BDBF0E90FEF79CBF079A8DF86B1069
:10475000002ABFF6CFACFFF7F3B80D9362E75D46D2
:1047600093463A460C464F46914601333444072B54
:10477000CDE92434CBF80090CBF8046000F39680A8
:104780000BF1080BFFF757BB2D23B8F1470F8DF83E
:104790006B3007947ADC4F4D0E9403230C93042363
:1047A0000693FEF76EBF0A780E93069B8DF8BF2026
:1047B0000C930DF1BF05FEF764BF1B094AF002021E
:1047C0007FF4E2AD06990C9101280AF084030DF103
:1047D000BF0592460246B8BF01229BE508990B9897
:1047E00023AA00F099FB00287EF433AF1C99259C86
:1047F0000DF1C00BB4E6CDE90C5430AD58E507938C
:104800000E93069330ADFEF73CBF079A002A3FF4A3
:1048100043AD74E40DF1C00BFEF764BF0B788DF867
:10482000BF30069B0E9301230C9306920DF1BF053A
:10483000FEF727BF30228DF8BF200A4601210AF07B
:1048400004030D95B2464FF078080C910DF1BF05A9
:1048500060E50A788DF8BF200E93069A079B0C92AC
:1048600006930DF1BF05FEF70CBF092A00F24E8238
:1048700030320D9301238DF8BF20069300E4089990
:104880000B9823AA00F048FBFEF7E3BE124D83E726
:1048900008990B9823AA00F03FFB00287EF4D9AEBC
:1048A000DDE924321C990DF1C00B16E708990B982D
:1048B00023AA00F031FB00287EF4CBAE259C0DF13D
:1048C000C00BFFF7B8BA00BFCDCCCCCC2487000812
:1048D000148800080087000804870008079E002E3F
:1048E00000F05C81002BC0F23982DDE91034CDE9A3
:1048F0001634079E814621AB04931DAB03931CAB7A
:104900000293022300930B980196DDE9162301F030
:1049100033FF1AF0010F054640F0E2801C9A219BFC
:104920000E921B1AD41C0F93C0F2CE80B2426BDCE5
:104930009A42C0F224810E9B0C9323EAE372069202
:104940004FF0670858E49DF86B30002B00F0F980B9
:10495000069BDDF854A0CDF81C9001330693FEF7BA
:1049600090BE08990B9823AA00F0D6FA00287EF48E
:1049700070AE1C9B259C0DF1C00BFFF76FBA089918
:104980000B9823AA00F0C8FA00287EF462AE259C9A
:104990000DF1C00BFFF746BA08990B9823AA00F057
:1049A000BBFA00287EF455AE1C9B0F9A259CD31AA7
:1049B0000DF1C00BFFF76ABA002BC0F2A3800623EB
:1049C0000793DDE91034CDE916348146B8F1650F5F
:1049D0003FF4BFAB00F33881B8F1450F3FF4B9ABFA
:1049E000079E88E70D94002B00F03E81079B0C93F7
:1049F0005A1C069207900E90FEF743BE0E9B03339F
:104A000062DB0E9BB3424CDD0E9B013BA8F102081A
:104A1000002B8DF878801C93C0F299802B22092BF3
:104A20008DF8792040F399800DF18B04B54E224624
:104A30001046A6FB0312D20802EB8201A3EB410150
:104A4000303100F8011C19466329134600F1FF328A
:104A5000EEDC303302F8013C831EA34280F0A681D5
:104A60000DF1790213F8011B02F8011FA342F9D1DD
:104A700003F580736B44843B1B1A1EAA9B1A149384
:104A80000F9A149B012A13440C936FDD0C9B129A0E
:104A900013440C9323EAE373069300230E93FFF76A
:104AA000ABBBDDE90E23934269DC1AF0010F3FF442
:104AB00042AF0E9B129A13440C9323EAE3730693BE
:104AC0004FF06708FFF798BB0E9BA8F10208013B67
:104AD0008DF878801C930E9B2D22C3F101039EE775
:104AE00084190022DDE916010023FCF7EDF8002807
:104AF00040F02481219BA34280F0668147220692E8
:104B0000FFF757BB06230793DDE91034169304F132
:104B1000004317934FF02D0958E700230793FEF742
:104B2000EABC079A002A39D0002BBFF6DEAEDDE9D9
:104B30001034169304F10043079E17934FF02D098C
:104B4000D9E6DDF854A0CDF81C90FEF79ABD0E9B77
:104B50002D22C3F101038DF8792030338DF87B309D
:104B600030238DF87A300423149389E71AF0010278
:104B70000E928BD123EAE3730693FFF73DBB129AA3
:104B80000F9B13440E9A0C93002A40F3A48023EA4F
:104B9000E37306934FF06708FFF72EBB002BC0F2BC
:104BA0009080DDE91034DDF81C90CDE91634012643
:104BB000A1E64FF0FF330993FEF750BD8B4629461F
:104BC0003D464F46894601333244072BCDE9243216
:104BD000CBF80090CBF804607FF7D7AC08990B981E
:104BE00023AA00F099F900287EF433ADDDE92432E0
:104BF0000DF1C00BCBE4DDE9160100220023FCF728
:104C000063F828B9219B9C423FF6D3AA5B1B07930C
:104C10001C9B0E930E9B8DF87880013B002B1C9300
:104C2000C0F2C780079A0F92F8E6DDE9160100226C
:104C30000023FCF749F800287AD01C9B0E931C44F3
:104C4000631B0F93FFF7C8BAB8F1660F7FF4C8AEC5
:104C500046230693079E0323FFF782BA631B0F9335
:104C60001C9B0E93FFF7B8BA079A0C92CDE9062366
:104C70000E93FEF706BD119B13F000432AF0800A45
:104C80000E9346D02D238DF86B30B8F1470F4FF0BF
:104C9000000307936BDD1C4D0E93032204230C923B
:104CA0000693FEF7EEBC00230793F5E7B318129ABC
:104CB00013440C9323EAE37306934FF06608FFF75F
:104CC0009BBADDE91034169304F1004317934FF0BB
:104CD0002D0901260FE60E9B0C9AC3F101031A441D
:104CE00022EAE2730C9206934FF06708FFF784BA4A
:104CF000DDE9101246230693CDE91612079E032321
:104D0000FFF72EBACDCCCCCC0C8700080D93002039
:104D100088E49DF86B30B8F1470FCCBF434D444D4C
:104D2000002B49D1079303230C930693FEF7A9BCEC
:104D3000079BC3F101031C93FFF72BBA1C9A0E9239
:104D4000472223460692FFF73DBA0D9B53F8042BEA
:104D50000D9342EAE2720792FEF7CBBBDDE9103415
:104D6000169304F1004317934FF02D09C3E5304D1E
:104D700092E730238DF8BF30079B0693FFF780B989
:104D80000F9B079346E733B9012306934FF066085C
:104D90000C93FFF731BA129B013333440C9323EA8F
:104DA000E37306934FF06608FFF726BA02231493C5
:104DB00066E6079B0F938EE60023079303230C936D
:104DC00004230693FEF75DBC1C9A0E9247220692BE
:104DD000FFF7F8B90AF004039246079A06990C9176
:104DE000012AB8BF01220DF1BF05FFF793BA0E915A
:104DF0000692FEF746BC0AF084030D959246079A88
:104E00000121012AB8BF01224FF078080C910DF161
:104E1000BF05FFF77FBA5B1B0F931C9B0E93FFF739
:104E2000DBB90AF004030D95B246E8E70C870008E9
:104E300008870008F0B50D468989ADF26C4D21F068
:104E40000201ADF80C101AA9009104914FF4806191
:104E500002910591696E1991E989ADF80E10E96921
:104E60000791696A09910021069169460746FEF794
:104E7000E5FA061E6C4607DB6946384601F0E8F89D
:104E8000002818BF4FF0FF36A3895B0603D5AB8916
:104E900043F04003AB8130460DF26C4DF0BD00BFD6
:104EA0002DE9F84F4B6E9C0490462ED593681268FE
:104EB0004BB30D46064602F1080959E9022A5FEA9A
:104EC0009A0716D0A2F1040B002401E0A7420ED0ED
:104ED0005BF8041F2A46304601F0F8FA431C04F13F
:104EE0000104F3D10023C8E90133BDE8F88FD8F8F5
:104EF00008302AF0030AA3EB0A03C8F8083009F1C6
:104F00000809002BD9D10020ECE701F0B7F8002305
:104F1000C8E90133BDE8F88F10B4946814B110BC2F
:104F2000FFF7BEBF2046546010BC70472DE9F04F1C
:104F3000ABB0CDE906301C460391934618B1436BE4
:104F4000002B00F059860399B1F90C20960406D481
:104F50004B6E42F4005223F400538A814B661507CE
:104F600040F1A780039B1B69002B00F0A28002F098
:104F70001A020A2A00F0AC800023CDE90E330DF1AD
:104F8000680ACDF834A00493D1469BF80030002B7A
:104F900000F0CD805C4604E014F8013F002B00F0E7
:104FA000A680252BF8D1B4EB0B0540F0A380237825
:104FB000002B00F0BC804FF00003002501348DF879
:104FC0002F304FF0FF3302932E46A3461BF8012BE0
:104FD000A2F12003582B00F2B780DFE813F00E0394
:104FE000B500B5000B03B500B500B500B500B500C0
:104FF000B50002010703B5000A011F03B5001C0339
:1050000059005900590059005900590059005900D8
:105010005900B500B500B500B500B500B500B50044
:10502000B500B500B5001703B500B500B500B50073
:10503000B500B500B500B500B500B500BF01B500BD
:10504000B500B500B500B500BC01B500B500CD0494
:10505000B500B500B500B500B500B500B500B500A8
:10506000B500B500AE01DA00B500B500B500F90233
:10507000DA00B500B5006700B500FC02E801840164
:105080006700B5006201B5000D01B500B500FF0471
:10509000A2F1300300251BF8012B05EB850503EB7E
:1050A0004505A2F13003092BF5D991E746F010062A
:1050B0008CE70399079801F04DF9002840F06486C9
:1050C000039BB3F90C2002F01A020A2A7FF454AFB2
:1050D000039BB3F90E30002BFFF64EAF03990798F0
:1050E00023465A462BB0BDE8F04F00F0A9BEB4EB02
:1050F0000B051CD00E9BDDF83CC0013305EB0C0208
:10510000072BC9E900B50F920E9305DC09F10809D8
:10511000049B2B4404934AE7002A00F0438303993D
:1051200007980DAAFFF7BCFE28B9D146F0E70F9B00
:10513000002B40F0DB85039B9B895B0600F12486F6
:1051400004982BB0BDE8F08F002AF0D000238DF832
:105150002F3001238DF84020059310AF0193DDE936
:105160000E2016F084081346844602F1010140F037
:105170005C83019AAC1A002C00F30A859DF82F205D
:10518000002A00F0C08300230A4602939846089341
:105190004FE1069BF40603F10402964640F1A98311
:1051A000069B196896460C460029C0F22083029F90
:1051B0009DF82F30002F1846C0F2128426F080068A
:1051C000002940F00D84002F40F08385059751465B
:1051D000002B00F0DA80059B01330193002302933A
:1051E000F4E2069B53F8045B002D80F258836D4275
:1051F000069346F00406E9E616F0100000F060831E
:10520000029BDDF818E0002083425EF8044B8DF825
:105210002F00C0F20D8326F08006002C40F025857B
:10522000029BCDF818E0002B40F05A8505930193BE
:10523000514616F08403089340F00C83019BEC1A4E
:10524000002C00F3C284DDE90E3C0F461A4660468E
:10525000591C029B059C1C1B002C00F37581059BAF
:10526000C9F8007018440729CDE90E10C9F80430B8
:1052700000F3EE8109F10809720704D5019BEC1ACD
:10528000002C00F32982049B019A9542ACBF5B1964
:105290009B180493002840F0ED8100230E93D14623
:1052A00073E6069C029B54F8047B00218DF82F10B6
:1052B000002F00F0A584002BC0F2AC831A463846BC
:1052C000FBF78EF89DF82F30002800F03C85C21BBC
:1052D000059222EAE2720192002B00F0B683134697
:1052E00001330193A3E30299069A47F63003ADF820
:1052F000303000294FF000038DF82F3052F8043B76
:10530000C0F2048326F0800444F00204002B40F035
:1053100080840299002940F00B85DDE90E3016F0FB
:105320000406844603F10101059640F0ED840692DF
:10533000022226465746019217E3069B00228DF86B
:105340002F2053F8042B069301238DF8402005935A
:1053500010AF019303E746F0100651E746F0100640
:10536000029ADDF818E00023002A8DF82F305EF84D
:10537000043B2DDB26F0800653BB029A42BB16F09D
:105380000103059340F0FB83514616F08403089314
:1053900004D1059BEC1A002C00F3E4840F460E990F
:1053A000059B0F98CDF818E00131019357E716F0EF
:1053B0001002D5D1DDF818E016F040015EF8043B8C
:1053C00000F040848DF82F20029A002A9BB2D1DA97
:1053D000CDF818E0514603F007023032DB080F46E3
:1053E00001F8012DF7D1F00740F1DF81302A00F0FC
:1053F000F383302301F8013C023F02999DF82F20EE
:105400000892AAEB07039942B8BF19460593019188
:10541000002A00F0FB84019B01330193DDE90E308B
:1054200016F08408844603F1010200F0E1840023B1
:10543000089301300DF12F030121072ACDE90E2039
:10544000C9F80030C9F8041000F3228109F10809F5
:105450005118089BDBB10CAB0230C9F800300729AA
:105460004FF00203CDE90E10C9F8043040F3278154
:10547000002800F0B881039907980DAAFFF710FDE6
:1054800000287FF458AEDDE90E20D146511CB8F15A
:10549000800F7FF4DEAE019BEC1A002C7FF7D9AEB3
:1054A000102C40F36D84B54B0895CE46079DB14650
:1054B0004FF010081E4607E002F1020C0EF1080E34
:1054C0000A46103C102C1ADD511C10300729CEE979
:1054D0000068CDE90E10EFDD0DAA002800F0D380A2
:1054E00003992846FFF7DCFC00287FF424AEDDE9B1
:1054F0000E20103C102C02F1010CD646E4DC089D75
:1055000033464E46F1462044BCF1070FCDE90EC0AC
:10551000C9F80030C9F8044040F3C481002800F005
:10552000DA83039907980DAAFFF7BAFC00287FF4E5
:1055300002AE029B059CDDE90E201C1B002C02F133
:105540000101D1467FF78BAE102C8C4B32DD0295DA
:10555000CC4625460896039C079E4FF010089946B6
:1055600007E002F1020E0CF1080C0A46103D102D66
:105570001ADD511C814B10300729CCE90038CDE9E8
:105580000E10EEDD0DAA214600286ED03046FFF742
:1055900087FC00287FF4CFADDDE90E20103D102DF3
:1055A00002F1010ED446E4DC2C46089E029D4B46D7
:1055B0007146E14620440729CDE90E10C9F80030B4
:1055C000C9F8044000F3DE8009F10809013146E61C
:1055D00046F04006FAE4F20640F16A81069B049A1E
:1055E0001B681A60069B04330693CEE42B238DF8C8
:1055F0002F30EBE446F00106E8E49DF82F30002B55
:105600007FF4E4AC20238DF82F30DFE4069B46F0D6
:1056100010061A1DC4E546F08006D7E41BF8012BDE
:105620002A2A00F0BC83A2F13003092B98BF002185
:1056300000F28F831BF8012B01EB810103EB410189
:10564000A2F13003092BF5D941EAE1730293BFE4DB
:10565000002839D0039907980DAAFFF721FC0028EC
:105660007FF469AD0F98D14606E64FF0010E024671
:10567000D4467BE7039907980DAAFFF711FC002891
:105680003FF40BAE57E54FF0010C0246D64618E743
:1056900060B1039907980DAAFFF702FC00287FF478
:1056A0004AADDDE90E20D146511CD2E6089B002B05
:1056B00000F0268102200CAB1B901A93D1460A46BB
:1056C00009F108090131E2E671070E904ED5019B00
:1056D000EC1A002C4ADDD146102C0E9A40F34C8374
:1056E000DFF89C80079F4346CC46A846DDF80C9027
:1056F00010261D4606E0911C0CF1080C1A46103CC1
:10570000102C18DD531C1030072BCCE90056CDE9C6
:105710000E30F0DD0DAA28B349463846FFF7C0FB2E
:1057200000287FF408ADDDE90E20103C102C02F1BA
:105730000101D446E6DC2B46E14645469846204426
:105740000729C9E90084CDE90E107FF79CAD68B147
:10575000039907980DAAFFF7A3FB00287FF4EBAC91
:105760000F9890E501210246D446C8E7049B019AB0
:105770009542ACBF5B199B1804938EE534880008F2
:1057800044880008002800F00782039907980DAAB2
:10579000FFF786FB00287FF4CEAC0E990F980131FD
:1057A000D1465CE50E92D146B2E4AAEB0102104666
:1057B0000592029A9DF82F308242B8BF02460192AC
:1057C000002B3FF436AD134601330193DDE90E3073
:1057D00016F08408844603F1010200F00C83CDF832
:1057E00018E00F4623E601210246D1464FE6029B10
:1057F0002D20002BC1F100048DF82F00C0F2018193
:10580000092C26F080062CD8029B012B04F13004D1
:10581000B8BF01238DF867400193019B01330193C9
:10582000012305930DF16701D0E7002302932EE6D3
:10583000092C16D8303401238DF86740CDF818E0D4
:1058400001930123059316F084030DF1670108937A
:105850003FF4F4ACDDE90E200F469846511C16E6E5
:105860001046AE4F5146A7FB0423DB0803EB83022F
:10587000A4EB4202303201F8012D2246092A1C46CF
:10588000F1D8AAEB01031A460593029B9342B8BFD5
:1058900013460193002897D1CDF818E0C9E4069388
:1058A000FFF794BB09F108090CF101016246D0E44D
:1058B00073067FF593AE069B049A1B681A8091E6E7
:1058C000DDF818E016F040025EF8043B00F0C281FB
:1058D0009CB2029B8DF82F00002BBFF69CAC092CCC
:1058E000BFD830348DF867400123CDF818E001931C
:1058F000A7E7069B1968700648BF09B20C4653E437
:105900000246D146C3E5394602929EE403F00F00F9
:1059100083490692085C8DF867001B0946F0020671
:1059200000F082814FF0020E0DF1670703F00F02C5
:105930001B098A5C07F8012DF8D1029AAAEB07032C
:105940009A42B8BF1A4605930192BEF1000F00F0CB
:105950004B82019B02330193DDE90E3C16F0840873
:10596000604603F101017FF476AD019AAC1A002C78
:105970006EDC4FF000086EE56A490698F70650F8AD
:10598000043B069002D4740648BF9BB216F0010E89
:1059900000F0B580002B00F008818DF83120302216
:1059A0008DF8302000228DF82F20029803F00F028E
:1059B00000288A5C8DF86720C0F27C8126F0800682
:1059C0001B0946F00206ADD1029BCDF814E0012B75
:1059D000B8BF012301930DF16707BAE75049CCE73F
:1059E00009293FF63EAF3031C9B28DF867100299F0
:1059F0000129B8BF01210191002B7FF40EAF06925F
:105A00001FE7092C3FF62DAF303401238DF8674096
:105A1000019302E73846FAF773FC9DF82F300590A2
:105A200020EAE072019283B1019B01330193DDE929
:105A30000E3016F08408844603F1010200F0C8819C
:105A40000023069402930893F3E40694FFF787BBC0
:105A500002220892102C6046194640F37E81DFF83E
:105A6000C8800995CE464546B146DDF81C80039EA8
:105A7000102307E001F1020C0EF1080E1146103C54
:105A8000102C1ADD4A1C1030072ACEE90053CDE94C
:105A90000E20EFDD0DAA68B331464046FFF700FA4D
:105AA00000287FF448ABDDE90E10103C102C01F10A
:105AB000010CD6464FF01003E4DCA846099D4E4683
:105AC000F1462044BCF1070FCDE90EC0C9F80080B3
:105AD000C9F804402ADC09F108090CF101029DF81B
:105AE0002F30002B36D10899002972D11146624619
